:020000040800F2
:10000000A0DA0020290300081D4500081338000865
:1000100019450008C50800086165000800000000D7
:10002000000000000000000000000000690200085D
:10003000E309000800000000C5020008CD5E0008CA
:100040004303000843030008430300084303000878
:100050004303000843030008430300084303000868
:100060004303000843030008430300084303000858
:100070004303000843030008430300084303000848
:100080004303000843030008430300084303000838
:10009000430300084303000843030008150A00084F
:1000A0004303000843030008430300084303000818
:1000B0004303000843030008430300084303000808
:1000C00043030008430300084303000843030008F8
:1000D0004303000851650008430300084303000878
:1000E000090A00084303000843030008430300080B
:1000F00043030008430300084303000843030008C8
:1001000043030008430300084303000843030008B7
:10011000430300084303000843030008B15F0008DD
:10012000C90800084303000843030008430300080C
:100130004303000843030008430300084303000887
:100140004303000843030008430300084303000877
:100150004303000843030008430300084303000867
:100160004303000843030008430300084303000857
:100170004303000843030008430300080000000095
:10018000430300084303000800F002F800F05CF8A5
:100190000AA090E8000C82448344AAF10107DA45E2
:1001A00001D100F051F8AFF2090EBAE80F0013F0D8
:1001B000010F18BFFB1A43F001031847B0D10F001D
:1001C000D0D10F000A444FF0000C10F8013B13F09F
:1001D000070408BF10F8014B1D1108BF10F8015BA0
:1001E000641E05D010F8016B641E01F8016BF9D193
:1001F00013F0080F1EBF10F8014BAD1C0C1B09D1EA
:100200006D1E58BF01F801CBFAD505E014F8016B5B
:1002100001F8016B6D1EF9D59142D6D370470000ED
:100220000023002400250026103A28BF78C1FBD8FF
:10023000520728BF30C148BF0B6070471FB53AF066
:10024000D9FA1FBD10B510BD00F05EFA1146FFF7D8
:10025000F5FF31F077FC00F07CFA03B4FFF7F2FF12
:1002600003BC00F047FA00002C4B19680868B0E89E
:10027000F04F80F30988BFF36F8F4FF0000080F3D9
:10028000118870470000000008480068006880F38B
:1002900008884FF0000080F3148862B661B6BFF39F
:1002A0004F8FBFF36F8F00DF00BF00BF08ED00E08E
:1002B000DFF80C00016841F470010160704700BF75
:1002C00088ED00E0EFF30980BFF36F8F134B1A68DE
:1002D0001EF0100F08BF20ED108A20E9F04F1060CB
:1002E00009B44FF0500080F31188BFF34F8FBFF374
:1002F0006F8F39F02DF94FF0000080F3118809BCA1
:1003000019680868B0E8F04F1EF0100F08BFB0EC95
:10031000108A80F30988BFF36F8F70476000002058
:10032000EFF30580704700000948804709480047FF
:10033000FEE7FEE7FEE7FEE7FEE7FEE7FEE7FEE795
:10034000FEE7FEE704480549054A064B70470000F2
:100350009D5F000889010008A0D40020A0DA0020D9
:10036000A0D60020A0D6002053EA020C00F069803D
:100370002DE9F04B4FF00006002B1FBFB3FA83F5B9
:1003800003FA05F424FA05F65E4012BF1643B2FAEA
:1003900082F502FA05F4C5F120051EBF22FA05FC1C
:1003A00044EA0C04203556EA044C4FEA144418BFC2
:1003B000641C4FF000084FF00009904271EB030CF1
:1003C00039D3002919BFB1FA81F701FA07F6B0FA5B
:1003D00080F700FA07F6C7F120071EBF20FA07FCD6
:1003E00046EA0C062037B6FBF4FCA7EB0507103FE6
:1003F00007F01F0BCBF120060CFA0BFB2CFA06F6CC
:1004000044BFB3460026202FA4BF5E464FF0000B2A
:100410005BEA060C08BF4FF0010B19EB0B09ABFBB5
:10042000027C48EB0608C01B06FB02CC0BFB03CC8E
:1004300071EB0C01C1E70B46024641464846BDE858
:10044000F08B13B54FF000004FF00001AFF30080C8
:10045000BDE81C40704740EA0103024630B59B07E7
:1004600010D14FF0013400E008C208C91D1B9D43A4
:1004700015EAC41FF8D013F0FF0102F8011B0DD0DC
:100480001B0AF8E711F8013B002B02F8013B05D0ED
:1004900011F8013B002B02F8013BF3D130BD10B540
:1004A000431C02E010F8011B71B18107FAD14FF033
:1004B000013202C88C1A8C4314EAC211F9D0C01A56
:1004C0000A0603D0C01E10BDC01A10BD0A0401D018
:1004D000801E10BD0902FCD0401E10BD032A40F250
:1004E000308010F0030C00F0158011F8013BBCF1D6
:1004F000020F624498BF11F801CB00F8013B38BFEE
:1005000011F8013BA2F1040298BF00F801CB38BFFB
:1005100000F8013B11F0030300F02580083AC0F019
:10052000088051F8043B083A51F804CBA0E80810C1
:10053000F5E7121D5CBF51F8043B40F8043BAFF3F4
:100540000080D20724BF11F8013B11F801CB48BF4E
:1005500011F8012B24BF00F8013B00F801CB48BF84
:1005600000F8012B704710B5203AC0F00B80B1E8BD
:100570001850203AA0E81850B1E81850A0E81850D8
:10058000BFF4F5AF5FEA027C24BFB1E81850A0E8E1
:10059000185044BF18C918C0BDE810405FEA827CFB
:1005A00024BF51F8043B40F8043B08BF7047D20712
:1005B00028BF31F8023B48BF11F8012B28BF20F8B3
:1005C000023B48BF00F8012B704702F0FF0343EAEB
:1005D000032242EA024200F002B84FF0000204296E
:1005E000C0F0128010F0030C00F01B80CCF1040C62
:1005F000BCF1020F18BF00F8012BA8BF20F8022B96
:10060000A1EB0C0100F00DB85FEAC17C24BF00F83B
:10061000012B00F8012B48BF00F8012B70474FF069
:10062000000200B5134694469646203922BFA0E842
:100630000C50A0E80C50B1F12001BFF4F7AF09074E
:1006400028BFA0E80C5048BF0CC05DF804EB89003F
:1006500028BF40F8042B08BF704748BF20F8022B82
:1006600011F0804F18BF00F8012B70474FF0013C8C
:1006700050F8042B51F8043B9A4221D1A2EB0C0311
:10068000934313EACC1317D150F8042B51F8043BD1
:100690009A4215D1A2EB0C03934313EACC130BD16E
:1006A00050F8042B51F8043B9A4209D1A2EB0C03F9
:1006B000934313EACC13DBD04FF00000704700BF28
:1006C000D01A01BAB1FA81F101F0180122FA01F051
:1006D000CB40C1F12001DBB2C0B2C01A2CFA01F349
:1006E000D11A914311EAC311E6D1704770477047A0
:1006F0007047704701491820ABBEFEE72600020094
:100700000048704740D400207546FFF7F9FFAE4619
:1007100005006946534620F00700854618B020B50D
:10072000FFF710FEBDE820404FF000064FF0000735
:100730004FF000084FF0000B21F00701AC46ACE889
:10074000C009ACE8C009ACE8C009ACE8C0098D46F6
:10075000704710B50446AFF300802046BDE8104056
:10076000FFF77BBD55494A6822F440324A604A6827
:1007700043681A434A600268526822F48072036830
:100780005A6002685368026943EA022203685A60A9
:100790000268526822F0407203685A600268526828
:1007A00083681A4303685A600268926822F4006200
:1007B00003689A6002689268C3681A4303689A6083
:1007C0003F4B826A9A4218D00268926822F07062A7
:1007D00003689A6002689268836A1A4303689A60A1
:1007E0000268926822F0405203689A600268926838
:1007F000C36A1A4303689A600BE00268926822F0A9
:10080000706203689A600268926822F0405203683E
:100810009A600268926822F0020203689A60026895
:100820009368027E43EA420203689A602022125CC7
:10083000A2B10268526842F4006203685A6002681A
:10084000526822F4604203685A6002685368426A40
:10085000521E43EA423203685A6005E00268526859
:1008600022F4006203685A600268D26A22F47002BD
:100870000368DA620268D36A828B521E43EA02522C
:100880000368DA620268926822F4007203689A6070
:100890000268936890F8302043EA422203689A6025
:1008A0000268926822F4806203689A600268936822
:1008B000426943EA822203689A607047002301403C
:1008C0000100000F00BFFEE710B5024800F096FDE2
:1008D00010BD00004C050020014608781038182390
:1008E000B0FBF3F20848805CC865032A05D90868A4
:1008F0006FF30900001D886503E008686FF30900C5
:100900008865886D704700006C6C0F0801460020F8
:100910008A6A8B69CBB932B1012A0DD0022A03D081
:10092000032A10D10EE000BFCB6A03F08073B3F14D
:10093000807F00D1012007E0CB6AB3F1C07F00D1F6
:10094000012001E000E000BF34E08B69B3F5005FF7
:100950001AD132B1012A07D0022A03D0032A11D1B9
:100960000AE000BF01200EE0CB6A03F08073B3F110
:10097000807F00D1012006E0CB6AB3F1C07F00D1B7
:10098000012000E000BF15E032B1012A05D0022AA3
:1009900004D0032A0CD103E000BF00BF012008E00F
:1009A000CB6A03F08073B3F1807F00D1012000E0B7
:1009B00000BF00BF704730B50468246824F4802469
:1009C00005682C60046863608468402C04D1046866
:1009D000A2600468E16003E00468A1600468E2606A
:1009E00030BD704701B502E00098401E00900098AD
:1009F0000028F9D108BD01B502E00098401E009022
:100A000000980028F9D108BD10B54FF4806001F0BE
:100A100015F810BD10B54FF4807001F00FF810BD3F
:100A200072B600BFFEE7000070B504461D46002305
:100A3000B5F5804F13D154F822300C480340D1E96A
:100A4000000640EA06108E6840EA06208E8940EAD9
:100A500006408E693043034344F8223003E06FF0D0
:100A6000704044F82200002070BD00000000F0CF6C
:100A700010B503460022086853F8202012480240AF
:100A8000D1E901042043CC6820430C6920434C6920
:100A900020438C692043CC6920430C6A20434C6A74
:100AA00020438C6A2043CC6A2043CC6B20430C6BE0
:100AB000204302438868082801D142F040020868B8
:100AC00043F82020002010BD8000F0FF30B5034621
:100AD0000024501C53F8204004F04044D1E90005A4
:100AE00040EA05108D6840EA05208D8940EA0545F9
:100AF000088A401E45EA0055087D801E45EA0060D0
:100B00008D6928430443501C43F82040002030BD29
:100B100010B54FF020401749086017484860002082
:100B2000164908604860082088600020C860086195
:100B30004861886106200F49886000210D48C16026
:100B400001611021416100218161C16141624FF465
:100B5000805181620021C1620163416381634FF46E
:100B60008011C16300F00CF8044A1146014802F0FC
:100B7000E7F910BD64500020040100A0B45000202B
:100B800000B587B000BF002001903948006840F0F0
:100B90000100374908600846006800F00100019034
:100BA00000BF00BF00BF0020019031480838006836
:100BB00040F008002E49083908600846006800F037
:100BC0000800019000BF00BF00BF00200190084650
:100BD000006840F0100008600846006800F010004F
:100BE000019000BF00BF00BF0020019008460068D0
:100BF00040F0200008600846006800F020000190E6
:100C000000BF00BF00BF002001900846006840F010
:100C1000400008600846006800F04000019000BFF6
:100C200000BF0220039001200490032005900C20B7
:100C300006904FF63370029002A90E4800F00CFFA8
:100C40004FF68370029002A90B4800F005FF4FF2A7
:100C50003F00029002A9094800F0FEFE41F23F0069
:100C6000029002A9064800F0F7FE07B000BD0000A0
:100C700038380240000C02400010024000140240CC
:100C800000180240FEB50020009001900290002460
:100C900040F256354FF4F076002780208DF80000A2
:100CA00051208DF801000A226946BA2000F029F887
:100CB0000446002C01DA0020FEBD9DF802009DF8DC
:100CC000031000EB012085B29DF804009DF805108B
:100CD00000EB012086B280208DF8000056208DF8B0
:100CE000010003226946BA2000F00BF80446002CEC
:100CF00001DA0020E0E79DF8020000F00307012080
:100D0000DAE72DE9F04186B004460D4690464FF0F3
:100D1000FF3600270020ADF802008DF800400220C9
:100D2000ADF8040002950121ADF80E108DF80C40CD
:100D3000A8F1020081B2ADF81010A81C059008E0DF
:100D40000221684602F0B6FF0646022E00D102E0FC
:100D50007F1C052FF4DB00BF304606B0BDE8F081F4
:100D600038B50B480068009000256C1E09E003228E
:100D70006946BA20FFF7C5FF44B2002C01DD2046CA
:100D800038BD2846691CCDB20528F0DB2046F7E7C0
:100D90008C6D0F082DE9FE4304460D4616464FF0B4
:100DA000FF374FF000080020ADF802008DF800403A
:100DB000B0B2ADF80400029509E00121684602F0E6
:100DC00079FF0746012F00D104E008F10108B8F1CE
:100DD000050FF2DB00BF3846BDE8FE8310B54FF0CB
:100DE000FF3402F05FFFFFF7BBFF0446002C01DA7F
:100DF000204610BD00F004F8FFF744FF0020F8E79C
:100E00001CB54FF0FF34274903C9CDE90001082282
:100E10006946BA20FFF775FF0446002C01DA204628
:100E20001CBD9DF80200352813D19DF8020035281D
:100E300035D19DF80300362831D19DF804003828BB
:100E40002DD19DF80500382829D1022016490870B7
:100E500025E09DF8050078B99DF8020039281ED1DB
:100E60009DF8030031281AD19DF80400312816D1CD
:100E700001200D49087012E09DF8020039280ED1BA
:100E80009DF8030031280AD19DF80400352806D1C9
:100E90009DF80500372802D100200349087020463C
:100EA000BEE70000846D0F08EA01002010B500F0D5
:100EB00043F810BD2DE9F04104460D4616461F4685
:100EC00030B20A490880C5F5487000B20849088068
:100ED00028B2084921F8140030B2074921F814005B
:100EE0008021064800F0B8FEBDE8F0810002002035
:100EF00002020020EC010020F60100200014024054
:100F00004FF0FF31054A1180054A1180054A22F849
:100F10001010054A22F8101070470000000200204F
:100F200002020020EC010020F601002000BF322068
:100F300032F08AF9FBE700002DE9F04F99B059A093
:100F40000068189028210EA8FFF769FB5648006832
:100F50000D900025A8464FF0BA0A002600200C90FC
:100F60000B900A90814600244FF0FF3B0C220DA904
:100F70005046FFF7C6FE8346BBF1000F02DA19B0F8
:100F8000BDE8F08F9DF83680B8F1000F00D1F6E78C
:100F900008F0800000B97CE008F00F05052D00DDA9
:100FA00077E0012D17DD242101A8FFF738FB3E482B
:100FB000001D00680090681EC000821C69465046F3
:100FC000FFF79FFE8346681EC2000DF1020110A8C4
:100FD00016F0B1FB00BF35480088A84221DD00248F
:100FE0001BE0002715E0032000EBC7000DA9461801
:100FF000307800F00F092E48005D484500D10AE026
:10100000681EB84203DC2A49085DFFF779FF781CA7
:10101000C7B2AF42E7DB00BF641C244800888442AB
:10102000DFDB2DB3002420E0032000EBC4000DA97A
:101030004618307800F00F091D4800F804907078C9
:10104000B17840EA01200C90F078317940EA012033
:101050000B907079B17940EA01200A904846DDE9A9
:101060000A320C99FFF726FF641CAC42DCDB0DE072
:101070000E48008850B1002404E00D49085DFFF7D8
:101080003FFF641C094800888442F6DB074805805E
:1010900000BF032218A95046FFF77CFE834600BF1D
:1010A0006DE70000814E00007C6D0F0804020020F7
:1010B0000602002038B502460020009000BF92F8DA
:1010C0003C00012801D1022038BD012082F83C00FB
:1010D00000BF0868092816D91068C0680C780A3C57
:1010E00004EB44050724AC40A0431468E0600C788E
:1010F0000A3C04EB44048868A0401468E468204378
:101100001468E06013E0106800690C7804EB440593
:101110000724AC40A043146820610C7804EB44041D
:101120008868A040146824692043146820614868D6
:10113000072817D21068406B0C79641E04EB8405F5
:101140001F24AC40A04314686063088880B20C7907
:10115000641E04EB8404A0401468646B204314688C
:10116000606331E048680D2817D21068006B0C7975
:10117000E41F04EB84051F24AC40A04314682063E3
:10118000088880B20C79E41F04EB8404A040146842
:10119000246B20431468206316E01068C06A0C7941
:1011A0000D3C04EB84051F24AC40A0431468E062AE
:1011B000088880B20C790D3C04EB8404A0401468CC
:1011C000E46A20431468E062194B1A4C1068A0428C
:1011D00006D10868122803D1586840F4800058608E
:1011E000144C1068A0421CD10868102802D008686E
:1011F000112816D1586840F400005860086810287B
:101200000FD10D4800680D4CB0FBF4F000EB8000EE
:101210004000009002E00098401E009000980028D6
:10122000F9D100BF002082F83C0000BF00BF4BE7AF
:1012300000230140002001405C00002040420F00DC
:1012400070B5044600250CB9012070BD1549A06A8F
:10125000884200D000BF206C30B9204600F024F84E
:101260000020606484F83C00206C00F0100088B915
:10127000206C20F4885040F0020020642046FFF7E4
:1012800071FA00206064206C20F0020040F0010040
:10129000206400E0012500BF002084F83C0000BF6E
:1012A0002846D2E70100000F10B586B0044614218D
:1012B00001A8FFF7B4F91949206888422BD100BF73
:1012C000002000901648006840F4807014490860BF
:1012D0000846006800F48070009000BF00BF00BFA7
:1012E000002000900E481438006840F001000C49BE
:1012F000143908600846006800F00100009000BF43
:1013000000BF01200190032002900020039001A95A
:10131000044800F0A1FB06B010BD00000020014011
:10132000443802400000024070B50446A56D00F04C
:10133000A3FC064694F83500022808D0802060659A
:1013400000BF002084F8340000BF012070BD206879
:10135000006820F01600216808602068406920F0CD
:10136000800021684861206C08B9A06C28B1206811
:10137000006820F00800216808602068006820F0FC
:1013800001002168086010E000F076FC801B052851
:101390000BD920206065032084F8350000BF0020B1
:1013A00084F8340000BF0320D0E72068006800F014
:1013B00001000028E8D194F85C103F208840A86024
:1013C000012084F8350000BF002084F8340000BFFD
:1013D00000BFBBE7014691F83500022803D080200A
:1013E000486501207047052081F8350008680068CD
:1013F00020F001000A6810600020F3E7F8B5044609
:10140000002000908C4800684FF41651B0FBF1F7B3
:10141000A56D2E6894F85C1008208840304098B183
:101420002068006800F0040070B12068006820F0B7
:1014300004002168086094F85C1008208840A860C7
:10144000606D40F00100606594F85C1001208840F8
:10145000304068B12068406900F0800040B194F8E5
:101460005C1001208840A860606D40F0020060655B
:1014700094F85C1004208840304068B1206800680F
:1014800000F0020040B194F85C1004208840A8608D
:10149000606D40F00400606594F85C101020884096
:1014A000304078B32068006800F0080050B394F82A
:1014B0005C1010208840A8602068006800F480203C
:1014C00080B12068006800F4002028B9206CC8B101
:1014D0002046216C884715E0A06C98B12046A16C8D
:1014E00088470FE02068006800F4807028B9206801
:1014F000006820F0080021680860206C10B12046C8
:10150000216C884794F85C102020884030400028E7
:1015100065D02068006800F0100000285FD094F8C3
:101520005C1020208840A86094F83500052828D158
:101530002068006820F01600216808602068406973
:1015400020F0800021684861206C08B9A06C28B1A7
:101550002068006820F008002168086094F85C109A
:101560003F208840A860012084F8350000BF00209B
:1015700084F8340000BF206D10B12046216D8847EB
:10158000F8BD2068006800F4802080B12068006801
:1015900000F4002028B9606C10B12046616C8847C7
:1015A0001DE0E06BD8B12046E16B884717E020686A
:1015B000006800F4807068B92068006820F01000AE
:1015C00021680860012084F8350000BF002084F8FD
:1015D000340000BFE06B10B12046E16B8847606DBE
:1015E00038B3606D00F00100F0B1052084F83500DB
:1015F0002068006820F001002168086000BF0098A2
:10160000401C0090B84200D905E02068006800F056
:1016100001000028F3D100BF012084F8350000BF8D
:10162000002084F8340000BFE06C10B12046E16C6B
:10163000884700BFA4E700005C0000202DE9F041CE
:101640000446002500F018FB074614B90120BDE848
:10165000F081606A00B100BF022084F8350000BF4D
:10166000002084F8340000BF2068006820F00100EA
:10167000216808600AE000F0FFFAC01B052805D9C0
:1016800020206065032084F83500E0E720680068CA
:1016900000F001000028EED12068056821480540CF
:1016A000D4E901010843E1680843216908436169FD
:1016B0000843A1690843E1690843216A08430543D7
:1016C000606A042803D1D4E90B010843054320686C
:1016D00005602068456925F00705606A0543606A72
:1016E00004280DD1A06A0543E06A48B12046FFF7FF
:1016F0000DF928B140206065012084F83500A6E787
:10170000206845612046FFF7E7F8064694F85C102C
:101710003F208840B06000206065012084F83500DB
:10172000002094E73F8010F02DE9F04704460D4675
:1017300016461F464FF00008D4F8589000BF94F8A2
:101740003400012802D10220BDE8F087012084F88E
:10175000340000BF94F83500012825D1022084F818
:101760003500002060653B46324629462046FFF79B
:1017700022F994F85C103F208840C9F808002068DE
:10178000006840F0160021680860206C28B12068CD
:10179000006840F00800216808602068006840F098
:1017A00001002168086006E000BF002084F83400D2
:1017B00000BF4FF002084046C6E7000070B504467F
:1017C00000F05AFA06462546681C10B10448007815
:1017D000054400BF00F050FA801BA842FAD370BD48
:1017E0005400002000B587B0142102A8FEF717FFAF
:1017F0002A48006808B107B000BD012027490860E9
:1018000000BF002001902648006840F001002449F4
:1018100008600846006800F00100019000BF00BFAA
:101820004FF23F000290022003900020049003201A
:1018300005900C20069002A91A4800F00DF941F21B
:101840003F40029002200390002004900320059066
:101850000C20069002A9144800F0FEF84FF68070A4
:1018600002900220039000200490032005900C2099
:10187000069002A90D4800F0EFF84FF63370029081
:101880000220039000200490032005900C20069075
:1018900002A9074800F0E0F800BFACE744000020D0
:1018A0003838024000140240001802400010024084
:1018B000000C0240F0B50C46002500220023002158
:1018C00092E0012606FA01F504EA0502AA427DD15A
:1018D000474E8F0856F827308E07370F0F26BE4029
:1018E0003340444EB04201D1002623E0424EB04284
:1018F00001D101261EE0414EB04201D1022619E07D
:101900003F4EB04201D1032614E03E4EB04201D119
:1019100004260FE03C4EB04201D105260AE03B4EC2
:10192000B04201D1062605E0394EB04201D107266A
:1019300000E008268F073F0FBE409E4222D1354E61
:1019400036689643334F3E603E1D366896433F1DD2
:101950003E603E1D366896433F1D3E603E1D366824
:1019600096433F1D3E608E07370F0F2606FA07F39A
:101970001F4E8F0856F827609E431D4F4FEA910C6B
:1019800047F82C6006684FEA410C032707FA0CF76A
:10199000BE430660CF0800F1200656F827604F07C7
:1019A0004FEAD76C0F2707FA0CF7BE434FEAD10C6A
:1019B00000F1200747F82C60C6684FEA410C032766
:1019C00007FA0CF7BE43C660466800E00BE001274B
:1019D0008F40BE43466086684FEA410C032707FAF2
:1019E0000CF7BE438660491C1029FFF46AAFF0BDB6
:1019F0000838014000000240000402400008024094
:101A0000000C024000100240001402400018024086
:101A1000001C0240003C014010B50446B4F5807F34
:101A200001D1FFF743FAB4F5806F04D101210248D8
:101A3000006831F05FFC10BD4000002010B5044686
:101A400004480068204020B1024804602046FFF7A7
:101A5000E3FF10BD143C0140F8B502460B460025DB
:101A6000002400200021D5E0012606FA01F51E68B9
:101A700006EA0504AC4274D11E7906F00306012E75
:101A800004D01E7906F00306022E13D190684F0091
:101A90000326BE40B0434F00DE68BE403043906036
:101AA000506801268E40B0431E79C6F300168E4062
:101AB000304350601E7906F00306032E09D0D0682B
:101AC0004F000326BE40B0434F009E68BE403043E7
:101AD000D0601E7906F00306022E13D1CF0802F162
:101AE000200656F827004E07F70E0F26BE40B043DB
:101AF0004F07FF0E1E69BE403043CF0802F120069B
:101B000046F8270010684F000326BE40B0431E79F8
:101B100006F003064F00BE40304310605E6806F4D6
:101B20004036002E75D000BF002600963B4E36682A
:101B300046F48046394F3E603E46366806F480469D
:101B4000009600BF00BF364E8F0856F827008E075C
:101B5000370F0F26BE40B043324EB24202D10026AC
:101B600024E056E0304EB24201D101261EE02F4E55
:101B7000B24201D1022619E02D4EB24201D1032614
:101B800014E02C4EB24201D104260FE02A4EB2429C
:101B900001D105260AE0294EB24201D1062605E010
:101BA000274EB24201D1072600E008268F073F0FDB
:101BB000BE4030431A4E8F0846F82700214E306849
:101BC000A0435E6806F4803606B120431D4E3060A7
:101BD000361D3068A0435E6806F4003606B1204327
:101BE000184E361D3060361D3068A0435E6806F41E
:101BF000801606B12043134E08363060361D30681B
:101C0000A0435E6806F4001606B120430D4E0C3664
:101C10003060491C1029FFF427AFF8BD443802405A
:101C20000838014000000240000402400008024061
:101C3000000C024000100240001402400018024054
:101C4000001C0240003C0140024613690B400BB1EE
:101C5000012000E00020704710B5426921EA02032C
:101C600002EA010443EA0443836110BD0AB18161C1
:101C700001E00B0483617047014800687047000071
:101C80004C00002010B504460CB9012010BD2420E2
:101C900084F83D002068006820F001002168086099
:101CA000204600F001FC0020206484F83D00206301
:101CB00084F83E0000BF84F83C0000BF00BFE5E7A9
:101CC000014691F83D00704770B504460CB90120FB
:101CD00070BD94F83D0028B9002084F83C002046EF
:101CE00000F0FEFB242084F83D002068006820F00E
:101CF0000100216808602068006840F40040216805
:101D000008602068006820F400402168086000F046
:101D100051FE05465C496068884206D85B488542AA
:101D200001D2012007E0002005E05948854201D298
:101D3000012000E00020012800D1C9E75548B5FB8B
:101D4000F0F62068406820F03F003043216848608A
:101D50004D496068884201D8701C07E04FF49670C6
:101D600070434FF47A71B0FBF1F0401C2168096AAE
:101D700021F03F01084321680862434960688842B6
:101D800014D8681E61684900B0FBF1F0401CC0F334
:101D90000B00042801D204203DE0681E6168490060
:101DA000B0FBF1F0401CC0F30B0034E0A06838B980
:101DB000681E616801EB4101B0FBF1F0401C0AE0D4
:101DC000681E616801EBC10202EB0111B0FBF1F08A
:101DD000401C40F48040C0F30B0008B901201AE019
:101DE000A06848B9681E616801EB4101B0FBF1F0E1
:101DF000401CC0F30B000CE0681E616801EBC102DF
:101E000002EB0111B0FBF1F0401CC0F30B0040F4F9
:101E1000804040F400402168C9694CF6FF7291434C
:101E200008432168C861D4E90701084321680968AB
:101E300021F0C001084321680860D4E90310084379
:101E40002168896848F2FF3291430843216888601D
:101E5000D4E9050108432168C96821F0FF0108435E
:101E60002168C8602068006840F0010021680860AF
:101E700000202064202084F83D000020206384F8A6
:101E80003E0000BF24E70000A086010080841E0001
:101E900000093D0040420F002DE9F84F04460F466F
:101EA00090461E46FFF7E8FE05464FF0010994F8FC
:101EB0003D0020287ED11923012263492046009548
:101EC00001F063FF10B10220BDE8F88F00BF94F865
:101ED0003C00012801D10220F6E7012084F83C00F3
:101EE00000BF2068006800F0010028B92068006881
:101EF00040F00100216808602068006820F400605C
:101F000021680860242084F83D00002020644F48A8
:101F1000E06200BF2068006840F4807021680860BB
:101F2000334600224FF001112046009501F02DFFAD
:101F300058B12068006800F48070B0F5807F02D14D
:101F40004FF4007020640320BEE707F0FE00216814
:101F50000861FFF791FE054620684069C0F3400A1A
:101F600020684069C0F3802B10E0FFF785FE401B1E
:101F7000B04200D816B9A02084F83D00206840691E
:101F8000C0F3400A20684069C0F3802B94F83D00FC
:101F9000A02805D0BAF1000F02D1BBF1000FE4D0A8
:101FA000202084F83D0020684069C0F3400028B339
:101FB000206800E045E0006840F400702168086097
:101FC00000BF002000902068406900902068806970
:101FD000009000BF00BF192301221B492046009535
:101FE00001F0D3FE08B101206EE7202084F83D0007
:101FF00000BF002084F83C0000BF65E7206800684F
:1020000040F40070216808606FF4806021684861C6
:10201000192301220C492046009501F0B6FE08B1B3
:10202000012051E709F10109C145FFF473AF2020F8
:1020300084F83D0000BF002084F83C0000BF012070
:1020400042E7022040E70000020010000000FFFF0E
:102050002DE9FC5F04460F4690469946DDE90CAB3E
:102060000E9EFFF709FE054694F83D00202870D12A
:1020700019230122B0492046009501F086FE10B1D7
:102080000220BDE8FC9F00BF94F83C00012801D16C
:102090000220F6E7012084F83C0000BF20680068B9
:1020A00000F0010028B92068006840F001002168B4
:1020B00008602068006820F4006021680860222021
:1020C00084F83D00402084F83E0000202064C4F8DD
:1020D00024A0A4F82AB0608D20859848E0624B4681
:1020E000424639462046CDE9006501F08BFC08B137
:1020F0000120C6E7208D88B900BF0020019020682C
:102100004069019020688069019000BF00BF20688D
:10211000006840F400702168086040E0208D0128CC
:1021200018D12068006820F480602168086000BF32
:10213000002001902068406901902068806901902A
:1021400000BF00BF2068006840F40070216808608C
:1021500025E0EFE0208D022816D12068006820F4E9
:102160008060216808602068006840F40060216891
:10217000086000BF0020019020684069019020683D
:102180008069019000BF0AE000BF00200190206834
:102190004069019020688069019000BF00BFBAE0EB
:1021A000208D03287ED8208D012815D12A4631465E
:1021B000204601F08FFE08B1012062E72068006927
:1021C000616A0870606A401C6062208D401E208534
:1021D000608D401E60859EE0208D02282AD1334606
:1021E000002257492046009501F0CFFD08B101209B
:1021F00047E72068006840F40070216808602068A4
:102200000069616A0870606A401C6062208D401E2F
:102210002085608D401E608520680069616A0870B5
:10222000606A401C6062208D401E2085608D401ECB
:10223000608570E03346002241492046009501F058
:10224000A4FD08B101201CE72068006820F480602C
:102250002168086020680069616A0870606A401C33
:102260006062208D401E2085608D401E6085334653
:10227000002233492046009501F087FD08B1012076
:10228000FFE62068006840F400702168086020685C
:102290000069616A0870606A401C6062208D401E9F
:1022A000208500E010E0608D401E60852068006998
:1022B000616A0870606A401C6062208D401E208543
:1022C000608D401E608526E02A463146204601F09A
:1022D00001FE08B10120D4E620680069616A087037
:1022E000606A401C6062208D401E2085608D401E0B
:1022F000608520684069C0F3800060B12068006993
:10230000616A0870606A401C6062208D401E2085F2
:10231000608D401E6085208D00287FF441AF202015
:1023200084F83D00002084F83E0000BF84F83C00A3
:1023300000BFA6E60220A4E6020010000000FFFF96
:10234000040001002DE9FC5F04460F4690469946C3
:10235000DDE90CAB0E9EFFF78FFC054694F83D00BF
:1023600020287DD1192301224D492046009501F0F6
:102370000CFD10B10220BDE8FC9F00BF94F83C00AA
:10238000012801D10220F6E7012084F83C0000BFBB
:102390002068006800F0010028B92068006840F05B
:1023A0000100216808602068006820F4006021684E
:1023B0000860212084F83D00402084F83E00002081
:1023C0002064C4F824A0A4F82AB0608D2085354884
:1023D000E0624B46424639462046CDE9006501F0B1
:1023E000C1FB08B10120C6E731E02A46314620464C
:1023F00001F0B0FD50B1206C042805D120680068C0
:1024000040F40070216808600120B4E7606A007839
:1024100021680861606A401C6062208D401E208532
:10242000608D401E608520684069C0F3800070B1F7
:10243000208D60B1606A007821680861606A401C84
:102440006062208D401E2085608D401E6085208D3D
:102450000028CAD12A463146204601F068FC00E037
:102460001CE050B1206C042805D12068006840F4BD
:1024700000702168086001207DE72068006840F452
:10248000007021680860202084F83D00002084F856
:102490003E0000BF84F83C0000BF6CE702206AE702
:1024A000020010000000FFFF10B504460949206833
:1024B00088420ED10848006820F4001006490860E0
:1024C00089150648FFF7F6F94FF400710348FFF746
:1024D000F1F910BD005400404038024000040240B1
:1024E00010B586B00446142101A8FEF798F81B49E0
:1024F0002068884230D100BF002000901848006852
:1025000040F00200164908600846006800F002002A
:10251000009000BF00BF4FF4407001901220029065
:1025200000200390032004900420059001A90D4889
:10253000FFF792FA00BF00200090094810300068B1
:1025400040F400100649103108600846006800F4A5
:102550000010009000BF00BF06B010BD0054004046
:1025600030380240000402400348006803490978FB
:1025700008440149086070474C00002054000020C6
:1025800010B50D48006840F400700B49086008461B
:10259000006840F4806008600846006840F480707D
:1025A0000860032000F008F90F2000F007F800F0A1
:1025B0004BF8002010BD0000003C024070B588B010
:1025C00004460025002600222146372000F0B5F8F9
:1025D000372000F0A2F800BF0020019016480068E4
:1025E00040F02000144908600846006800F0200010
:1025F000019000BF00BF02A903A800F0B3F900F0EA
:10260000D9F945000D48B5FBF0F0461E0C480D49C0
:10261000086040F2E7310B48C1604660002101616B
:10262000816000F0C0FC20B9064800F0F1FC08B061
:1026300070BD0120FBE700004038024040420F001F
:1026400000140040E006002008B500BF0020009004
:102650001148006840F480400F490860084600684F
:1026600000F48040009000BF00BF00BF0020009039
:10267000081F006840F08050091F08600846006885
:1026800000F08050009000BF00BF00220F21901E7C
:1026900000F053F808BD00004438024070B504460D
:1026A0000E4615460CB9012070BD94F8490028B9B2
:1026B000002084F84800204600F02AF804F10801C0
:1026C0002068FEF7D5F93146A2682068FEF7FEF9CA
:1026D0002946236BD4E90102FEF7A6F9A168206818
:1026E00050F8210040F00100A268216841F8220062
:1026F000606918B900200549086002E0012003491B
:102700000860012084F849000020CDE7580000202F
:1027100010B50446FFF766F810BD014608460028CC
:1027200009DB00F01F0301229A4043099B0003F1DB
:10273000E023C3F8002100BF70472DE9F05F804619
:102740000D461646002703F00DFF074639462A4678
:10275000334601F00700C0F1070ABAF1040F02D9AD
:102760004FF0040A01E0C0F1070AD14600F1040A63
:10277000BAF1070F02D24FF0000A01E0A0F1030AFC
:10278000D4464FF0010A0AFA09FAAAF1010A0AEA44
:10279000020A0AFA0CFA4FF0010B0BFA0CFBABF130
:1027A000010B0BEA030B4AEA0B042146404603F0F7
:1027B000E1FEBDE8F09F000000BF00F00702064BFD
:1027C00019684FF6FF031940044B0B4343EA0221FB
:1027D000014B196000BF70470CED00E00000FA05E6
:1027E00070B504460D460CB9012070BD584800680C
:1027F00000F00700A84209D255490D70084600684C
:1028000000F00700A84201D00120EEE7207800F098
:10281000020002281DD1207800F00400042805D110
:102820004C48006840F4E0504A490860207800F0C5
:102830000800082805D14748006840F46040454931
:1028400008604448006820F0F000A168084341494E
:102850000860207800F00100A8B36068012807D163
:102860003C4808380068C0F34040B8B90120BCE7D4
:102870006068022802D06068032807D1354808380C
:102880000068C0F3406048B90120AEE7314808381D
:102890000068C0F3400008B90120A6E72D48006891
:1028A00020F00300616808432A490860FFF7E4F953
:1028B000064609E0FFF7E0F9801B41F288318842C3
:1028C00002D9032091E707E02248006800F00C00DD
:1028D0006168B0EB810FEDD11D48006800F0070082
:1028E000A84209D91A490D700846006800F007008F
:1028F000A84201D0012078E7207800F004000428E5
:1029000007D11448006820F4E050E16808431149F9
:102910000860207800F00800082808D10D480068F9
:1029200020F46040216940EAC1000A49086000F0D3
:1029300061F808490968C1F30311074A515CC840AE
:102940000649086006480068FFF738FE00204CE79B
:10295000003C024008380240746C0F085C00002004
:10296000500000200F2202600D4A126802F003029C
:1029700042600B4A126802F0F0028260084A126854
:1029800002F4E052C260064A126802F46042D208C1
:102990000261044A126802F007020A6070470000F0
:1029A00008380240003C02400148006870470000BF
:1029B0005C00002000B5FFF7F7FF04490968C1F388
:1029C0008221034A515CC84000BD00000838024023
:1029D000846C0F0800B5FFF7E7FF04490968C1F3ED
:1029E0004231034A515CC84000BD00000838024033
:1029F000846C0F082DE9F047002400250026A1462D
:102A00002548006800F00C0020B1042805D00828F3
:102A10003AD105E0DFF8849039E0DFF8849036E0C1
:102A20001D48001F006800F03F041B48001F00689D
:102A300000F4800078B11A481749091F0968C1F3EA
:102A40008811A0FB01700146224600233846FDF79D
:102A50008BFC05460EE011480F49091F0968C1F3B8
:102A60008811A0FB01700146224600233846FDF77D
:102A70007BFC05460848001F0068C0F30140401C6D
:102A80004600B5FBF6F902E0DFF8109000BF00BF8A
:102A90004846BDE8F0870000083802400024F400F2
:102AA00040787D01F8B504460CB90120F8BD2078C6
:102AB00000F00100002874D0F948006800F00C0014
:102AC00004280DD0F648006800F00C00082813D147
:102AD000F348001F006800F48000B0F5800F0BD1B0
:102AE000EF4808380068C0F34040002859D06068BB
:102AF000002856D10120D9E700BF6068B0F5803FBB
:102B000008D1E7480838006840F48030E4490839C3
:102B100008601EE06068B0F5A02F0DD1E0480838CD
:102B2000006840F48020DE490839086008460068E3
:102B300040F4803008600CE0D9480838006820F480
:102B40008030D749083908600846006820F48020A2
:102B5000086000BF606890B1FFF78EF8054606E098
:102B6000FFF78AF8401B642801D903209EE7CC4870
:102B700008380068C0F340400028F1D011E0FFF7AA
:102B80007BF8054606E0FFF777F8401B642801D97B
:102B900003208BE7C24808380068C0F34040002893
:102BA000F1D1207800F0020002285FD1BC48006813
:102BB00000F00C0058B1BA48006800F00C0008287A
:102BC0001CD1B748001F006800F48000B0B9B448B9
:102BD00008380068C0F3400020B1E068012801D047
:102BE000012063E7AE480838006820F0F80021694A
:102BF00040EAC100AA490839086037E0E06800B33C
:102C00000120A8490860FFF737F8054606E0FFF7FE
:102C100033F8401B022801D9032047E7A0480838B1
:102C20000068C0F340000028F1D09D4808380068D3
:102C300020F0F800216940EAC1009949083908608C
:102C400014E0002097490860FFF716F8054606E0F3
:102C5000FFF712F8401B022801D9032026E790480D
:102C600008380068C0F340000028F1D1207800F057
:102C7000080008282CD16069A8B101208A490860A1
:102C8000FEF7FAFF054606E0FEF7F6FF401B0228B6
:102C900001D903200AE782486C300068C0F3400085
:102CA0000028F1D014E000207F490860FEF7E4FF1F
:102CB000054606E0FEF7E0FF401B022801D903208D
:102CC000F4E677486C300068C0F340000028F1D18A
:102CD000207800F00400042870D1002770483830B4
:102CE000006800F0805090B900BF002000906C4850
:102CF0003830006840F08050694938310860084633
:102D0000006800F08050009000BF00BF01276748B6
:102D1000006800F48070B0B96448006840F48070C6
:102D200062490860FEF7A8FF054606E0FEF7A4FF2B
:102D3000401B022801D90320B8E65C48006800F473
:102D400080700028F2D000BFA068012808D1544844
:102D50006830006840F001005149683108601DE0AA
:102D6000A06805280DD14E486830006840F0040086
:102D70004B49683108600846006840F0010008606F
:102D80000CE047486830006820F001004449683191
:102D900008600846006820F00400086000BFA068D2
:102DA000A8B1FEF769FF054609E0FEF765FF401B85
:102DB00041F28831884202D9032077E626E038487C
:102DC00068300068C0F340000028EED013E0FEF742
:102DD00053FF054608E0FEF74FFF401B41F28831E4
:102DE000884201D9032061E62D4868300068C0F3AD
:102DF00040000028EFD1012F07D129483830006862
:102E000020F0805026493831086000BFA0690028B2
:102E100045D02348006800F00C0008285DD0A06968
:102E2000022845D100201F490866FEF725FF054608
:102E300006E0FEF721FF401B022801D9032035E6FA
:102E4000174808380068C0F340600028F1D1D4E981
:102E500007010843616A40EA81110122A06AC2EBBE
:102E6000500041EA00412C20005D41EA00600C491D
:102E7000091F086001200B490866FEF7FDFE0546A4
:102E800006E0FEF7F9FE401B022801D903200DE6FB
:102E9000034808380068C0F340600028F1D049E0DA
:102EA0000838024000004742800E47420070004050
:102EB000002021490866FEF7DFFE054606E0FEF722
:102EC000DBFE401B022801D90320EFE51B48006808
:102ED000C0F340600028F2D12CE0A069012800D1A5
:102EE000E4E51648001D0668A069012820D006F414
:102EF0008001E06981421BD106F03F01206A8142D6
:102F000016D147F6C0703040616AB0EB811F0FD117
:102F100006F440310122A06AC2EB5000B1EB004F31
:102F200006D106F070612C20005DB1EB006F01D07E
:102F30000120BBE50020B9E500004742003802400F
:102F400070B504460E4615460CB9012070BD94F8C4
:102F5000490028B9002084F84800204600F01CF8F9
:102F600004F108012068FDF783FD3146A26820685E
:102F7000FDF7ACFD2946236BD4E90102FDF754FDB2
:102F8000A168206850F8210040F00100A268216883
:102F900041F822000020D9E710B50446FEF722FCD4
:102FA00010BD7047704710B504460CB9012010BD24
:102FB00094F83D0028B9002084F83C00204600F039
:102FC00025F8022084F83D00211D206802F0F8FF5A
:102FD000012084F8460000BF84F83E0001213F2014
:102FE0000155402001554120015500BF00BF01207F
:102FF00084F84200432001554420015545200155E5
:1030000000BF012084F83D000020D0E77047000099
:10301000014691F83D00012801D0012070470220AF
:1030200081F83D000868C06840F001000B68D86076
:103030001A4B086898421BD00868B0F1804F17D02F
:10304000174B0868984213D0164B086898420FD067
:10305000154B086898420BD0144B0868984207D06B
:10306000134B0868984203D0124B086898420CD161
:103070000868806800F00702062A0CD0086800681B
:1030800040F001000B68186005E00868006840F037
:1030900001000B6818600020C0E70000000001403C
:1030A0000004004000080040000C00400004014003
:1030B0000040014000180040704710B504462068E9
:1030C0000069C0F34000D8B12068C068C0F3400078
:1030D000B0B16FF0020021680861012020772068FC
:1030E000806900F0030018B12046FFF7E5FF05E016
:1030F000204600F0ADF8204600F0ABF80020207725
:1031000020680069C0F38000D8B12068C068C0F3AF
:103110008000B0B16FF004002168086102202077C0
:103120002068806900F4407018B12046FFF7C4FFA2
:1031300005E0204600F08CF8204600F08AF80020D8
:10314000207720680069C0F3C000D8B12068C0684B
:10315000C0F3C000B0B16FF008002168086104201E
:1031600020772068C06900F0030018B12046FFF7FF
:10317000A3FF05E0204600F06BF8204600F069F858
:103180000020207720680069C0F30010D8B12068C3
:10319000C068C0F30010B0B16FF010002168086182
:1031A000082020772068C06900F4407018B12046DC
:1031B000FFF782FF05E0204600F04AF8204600F0C5
:1031C00048F8002020772068006900F0010058B11D
:1031D0002068C06800F0010030B16FF00100216884
:1031E0000861204600F036F820680069C0F3C0107E
:1031F00058B12068C068C0F3C01030B16FF08000D3
:10320000216808612046FFF7CCFE20680069C0F302
:10321000801058B12068C068C0F3801030B16FF0E2
:10322000400021680861204600F020F8206800690D
:10323000C0F3401058B12068C068C0F3401030B1EE
:103240006FF02000216808612046FFF7ABFE10BD3B
:103250007047704710B5044603492068884201D181
:10326000FFF782F910BD000000140040704770475E
:10327000704700002DE9F84F044620680568206873
:10328000C668206847694FF00009CA4605F00F0973
:10329000B9F1000F0AD105F0200038B106F0200086
:1032A00020B1204602F048FFBDE8F88FB9F1000FC9
:1032B0007CD007F0010018B906F49070002875D092
:1032C00005F0010030B106F4807018B1206C40F0B8
:1032D0000100206405F0040030B107F0010018B1CE
:1032E000206C40F00200206405F0020030B107F0CD
:1032F000010018B1206C40F00400206405F00800C3
:1033000048B106F0200010B907F0010018B1206C98
:1033100040F008002064206C002846D005F0200012
:1033200028B106F0200010B1204602F005FF206809
:103330004069C0F3801A206C00F0080010B9BAF19F
:10334000000F2DD0204602F0B1FE2068406900F049
:103350004000402820D100BF00BF2168143151E84F
:10336000001F21F040002168143141E80002002ACA
:10337000F3D100BFA06B50B17548A16B0865A06B7D
:10338000FEF728F888B1A06B016D88470DE0204654
:10339000FFF76EFF09E009E02046FFF769FF04E050
:1033A0002046FFF765FF002020647DE7206B0128A1
:1033B00076D105F01000002872D006F01000002829
:1033C000FAD000BF002000902068006800902068BC
:1033D0004068009000BF00BF2068406900F04000D6
:1033E00040285ED1A06B006840681FFA80F8B8F1F1
:1033F000000F54D0A08D404551DDA4F82E80A06B65
:10340000C069B0F5807F43D000BF00BF21680C3198
:1034100051E8001F21F4807021680C3141E800025E
:10342000002AF3D100BF00BF00BF2168143151E86A
:10343000001F21F001002168143141E80002002A38
:10344000F3D100BF00BF00BF2168143151E8001F55
:1034500021F040002168143141E80002002AF3D134
:1034600000BF202084F83E000020206300BF00BF82
:1034700021680C3151E8001F21F0100021680C3147
:1034800041E80002002AF3D100BFA06BFDF74CFF1A
:10349000A08DE28D801A81B22046FFF7E8FE03E797
:1034A00040E0A08DE18D401A1FFA80F8E08DC0B396
:1034B000B8F1000F35D000BF00BF21680C3151E8D2
:1034C000001F21F4907021680C3141E80002002AAD
:1034D000F3D100BF00BF00BF2168143151E8001FC5
:1034E00021F001002168143141E80002002AF3D1E3
:1034F00000BF202084F83E000020206300BF00BFF2
:1035000021680C3151E8001F21F0100021680C31B6
:1035100041E80002002AF3D100BF41462046FFF7F0
:10352000A6FEC1E605F0800030B106F0800018B1BB
:10353000204602F093FFB7E605F0400030B106F0F8
:10354000400018B1204602F0E7FDADE600BFABE653
:103550009960000810B504460CB9012010BDA0699F
:1035600000B100E000BF94F83D0028B9002084F8C5
:103570003C00204600F028F8242084F83D00206814
:10358000C06820F400502168C860204602F050FE58
:103590002068006920F49040216808612068406933
:1035A00020F02A00216848612068C06840F400507B
:1035B0002168C86000202064202084F83D0084F841
:1035C0003E000020CAE7000010B586B00446142172
:1035D00001A8FDF724F81F492068884238D100BFB0
:1035E000002000901C48006840F010001A49086054
:1035F0000846006800F01000009000BF00BF00BF48
:103600000020009014481438006840F0010012496E
:10361000143908600846006800F00100009000BFFF
:1036200000BF4FF4C0600190022002900020039080
:10363000032004900720059001A90848FEF70CFA22
:10364000002205212520FFF778F82520FFF765F8EF
:1036500006B010BD00100140443802400000024096
:103660002DE9F84F04460E46174699464FF0000ADA
:1036700094F83E0020285FD106B117B90120BDE8BB
:10368000F88F00BF94F83C00012801D10220F6E732
:10369000012084F83C0000BF00202064222084F830
:1036A0003E0000202063FEF7E7FA8246A785E78503
:1036B000A068B0F5805F04D1206910B90025B0463C
:1036C00002E035464FF0000800BF002084F83C00BF
:1036D00000BF29E05346002220212046CDF800906B
:1036E00002F0ECFE08B10320C9E745B92068406844
:1036F000C0F30800A8F8000008F1020811E0A06873
:10370000B0F5805F03D0A06828B9206918B9206897
:103710004068287004E02068406800F07F0028704E
:103720006D1CE08D401EE085E08D0028D2D1202068
:1037300084F83E000020A2E70220A0E770472DE9B0
:10374000F84F04460E46174699464FF0000A94F883
:103750003D0020285AD106B117B90120BDE8F88FE5
:1037600000BF94F83C00012801D10220F6E70120B7
:1037700084F83C0000BF00202064212084F83D0034
:10378000FEF77AFA8246A784E784A068B0F5805FE6
:1037900004D1206910B90025B04602E035464FF04B
:1037A000000800BF002084F83C0000BF1BE0534627
:1037B000002280212046CDF8009002F07FFE08B163
:1037C0000320CBE745B9B8F80000C0F30800216832
:1037D000486008F1020803E02878216848606D1C01
:1037E000E08C401EE084E08C0028E0D153460022AB
:1037F00040212046CDF8009002F060FE08B1032081
:10380000ACE7202084F83D000020A7E70220A5E7D0
:10381000704700BFFEE7000008B500BF0020009021
:103820006423012269460E48FFF71AFF9DF8000045
:10383000FF2811D14FF4FA734B220A490848FFF7C9
:103840000FFF48B9074991F8400013F0C3FF05493D
:1038500091F841002FF01EFE01202FF0F5FCDDE76E
:103860009C060020B804002000B587B000BF0020EF
:1038700001903048006840F008002E490860084672
:10388000006800F00800019000BF00BF00BF0020EA
:1038900001900846006840F008000860084600688B
:1038A00000F00800019000BF00BF00BF00200190A1
:1038B0000846006840F0080008600846006800F00C
:1038C0000800019000BF00BF00BF00200190084623
:1038D000006840F0400008600846006800F04000C2
:1038E000019000BF00BF80200290112003900020B3
:1038F00004900320059002A90F48FEF7ADF80820B8
:10390000029002A90C48FEF7A7F84020029001207F
:103910000390022004900320059002A90648FEF7B8
:103920009BF84020029002A90448FEF795F807B0E2
:1039300000BD000030380240000C02400018024078
:1039400000B585B04FF4807000904FF4881001905E
:10395000002002900320039069460648FEF77CF899
:1039600000220A211720FEF7E8FE1720FEF7D5FEF9
:1039700005B000BD00180240014608684069C0F368
:103980008020B0B16FF480600A6850610020086345
:10399000202081F83D00002081F83E00086C40F0B6
:1039A0000400086400BF002081F83C0000BF012033
:1039B00070470020FCE770B506460D46144614F02B
:1039C00017F846F0010013F0E9FF14F039F800B1E0
:1039D00014E00DE0012C03D113F0AAFF14F020F83D
:1039E00013F0BAFF28706D1C601E84B213F080FFC4
:1039F000002CEFD114F014F8002070BD14F010F872
:103A00000120FAE72DE9F84304460F46154699468A
:103A1000DDE908862068006840F48060216808605D
:103A20002068006840F480702168086043460022E6
:103A30004FF001112046009600F0A7F960B1206810
:103A4000006800F48070B0F5807F02D14FF4007000
:103A500020640320BDE8F88307F0FE0021680861B8
:103A6000334642463E49204600F0D2F908B10120D3
:103A7000F0E700BF002000902068406900902068B7
:103A80008069009000BF00BF32464146204600F0EA
:103A900061FA50B1206C042805D12068006840F418
:103AA0000070216808600120D4E7B9F1010F03D14B
:103AB000E8B22168086117E0C5F3072021680861B2
:103AC00032464146204600F045FA50B1206C0428A9
:103AD00005D12068006840F400702168086001206A
:103AE000B8E7E8B22168086132464146204600F056
:103AF00031FA50B1206C042805D12068006840F4E8
:103B00000070216808600120A4E72068006840F484
:103B1000807021680860434600224FF00111204662
:103B2000009600F032F958B12068006800F4807007
:103B3000B0F5807F02D14FF400702064032089E744
:103B4000F8B240F00100216808613346424604495A
:103B5000204600F05DF908B101207BE7002079E7FD
:103B6000020001002DE9F8430446884615469946AF
:103B7000DDE908672068006840F48070216808600B
:103B8000334600224FF001112046009700F0FDF867
:103B900060B12068006800F48070B0F5807F02D1C9
:103BA0004FF4007020640320BDE8F88308F0FE00A5
:103BB000216808613B4632462149204600F028F939
:103BC00008B10120F0E700BF0020009020684069A4
:103BD000009020688069009000BF00BF3A463146DF
:103BE000204600F0B7F950B1206C042805D12068B8
:103BF000006840F40070216808600120D4E7B9F142
:103C0000010F03D1E8B22168086117E0C5F307206E
:103C1000216808613A463146204600F09BF950B1D0
:103C2000206C042805D12068006840F400702168E9
:103C300008600120B8E7E8B2216808610020B3E716
:103C40000200010000B585B04FF4807000900120A3
:103C50000190022002900320039069460E48FDF770
:103C6000FBFE4FF480000D4908600D48FCF7C3FED1
:103C700040200A4908600A48FCF7BDFE4FF48070F6
:103C800000900020019002900320039069460248B2
:103C9000FDF7E2FE05B000BD00180240180C02401E
:103CA000FFFF0F0010B5FFF7DFFDFFF7CBFFFFF7BA
:103CB00047FE10BD2DE9F04105460F4600240026C1
:103CC00000BF2BE004EB440005EB8000807800F09F
:103CD000010088B104EB440305EB83039A8804EBED
:103CE000440305EB8303996804EB440315F82300B0
:103CF000FFF761FE064610E004EB440305EB830387
:103D00001A7904EB440305EB8303996804EB44033D
:103D100015F8230000F04CF90646641C0EB9BC42AD
:103D2000D0D116B13046BDE8F0812046FBE770B532
:103D300004460D46164620E02046FFF71DFE08B15A
:103D4000012070BD681CC0B1FDF796FF801BA84222
:103D500000D895B900202063202084F83D00002081
:103D600084F83E00206C40F02000206400BF00205A
:103D700084F83C0000BF0120E3E720684069C0F3FD
:103D800080000028D8D00020DBE72DE9F041044670
:103D90000D4617461E46DDF818801CE0701CD0B199
:103DA000FDF76AFFA0EB0800B04200D89EB90020E2
:103DB0002063202084F83D00002084F83E00206C21
:103DC00040F02000206400BF002084F83C0000BFC9
:103DD0000120BDE8F081C5F3074001280AD1206821
:103DE0004069A9B20840A9B2884201D101200BE084
:103DF000002009E020688069A9B20840A9B2884281
:103E000001D1012000E00020B842C7D00020E0E747
:103E10002DE9F04104460D4616461F463DE0206858
:103E20004069C0F38020E8B12068006840F4007069
:103E3000216808606FF48060216848610020206379
:103E4000202084F83D00002084F83E00206C40F0E3
:103E50000400206400BF002084F83C0000BF012063
:103E6000BDE8F081701CC0B1FDF706FFC01BB04279
:103E700000D896B900202063202084F83D0000205F
:103E800084F83E00206C40F02000206400BF002039
:103E900084F83C0000BF0120E2E7C5F30740012899
:103EA0000AD120684069A9B20840A9B2884201D16C
:103EB00001200BE0002009E020688069A9B20840D9
:103EC000A9B2884201D1012000E000200028A6D03C
:103ED0000020C5E770B504460D46164632E020685E
:103EE0004069C0F30010A0B16FF010002168486174
:103EF00000202063202084F83D00002084F83E004C
:103F0000206C206400BF002084F83C0000BF01202A
:103F100070BDFDF7B1FE801BA84200D895B9002006
:103F20002063202084F83D00002084F83E00206CAF
:103F300040F02000206400BF002084F83C0000BF57
:103F40000120E5E720684069C0F380100028C6D052
:103F50000020DDE770B504460D46164620E02046F9
:103F6000FFF70AFD08B1012070BD681CC0B1FDF764
:103F700083FE801BA84200D895B900202063202032
:103F800084F83D00002084F83E00206C40F02000C2
:103F9000206400BF002084F83C0000BF0120E3E75C
:103FA00020684069C0F3C0100028D8D00020DBE7AB
:103FB0002DE9F04104460D46174613F031FD002669
:103FC0000AE013F015FD204613F0E8FC13F038FD6D
:103FD00000B904E0701C86B2B6F57A7FF1DB00BF51
:103FE000B6F57A7F00D112E007E0287813F0D6FC0E
:103FF00013F026FD00B10AE06D1C381EA7F1010187
:10400000CFB2F2D113F00CFD0020BDE8F08113F027
:1040100007FD0120F9E7000010B504460248FDF74E
:1040200031FE00F03FFA10BD4806002000BF2FF01F
:1040300049FA0121034800682FF015F964202FF098
:1040400003F9F4E7400000201FB500200090019024
:10405000029003901548164908604FF4803048607C
:104060000021134881600161017680F82010C1624F
:10407000104981620021C1600121C161002180F8E5
:10408000301001214161FDF7DBF808B1FCF7C8FCF5
:104090000020009001200190002002906946044811
:1040A000FDF708F808B1FCF7BBFC1FBD002001407C
:1040B000040500200100000F08B500BF002000909B
:1040C0001A48006840F480001849086008460068F3
:1040D00000F48000009000BF00BF1548154908603B
:1040E000002048608021134881608900C160002160
:1040F00001614FF400614161890081610021C1616A
:10410000016204214162032181620021C1620163D5
:10411000FDF794FA08B1FCF783FC00220521382052
:10412000FEF70BFB3820FEF7F8FA08BD30380240E6
:10413000106402404C05002010B5114A00211148BE
:104140002FF04CF910490860104A002110482FF058
:1041500045F910490860104A002110482FF03EF937
:104160000F4908600F4A00210F482FF037F90F4917
:1041700008600F482FF09AF80E49086010BD000043
:10418000CC6B0F082D0F000830000020F06B0F08DB
:1041900091FB020834000020146C0F082D40000829
:1041A00038000020386C0F08193800083C00002047
:1041B0005C6C0F084000002000B58FB01C2108A8DF
:1041C000FCF72DFA1C2101A8FCF729FA4FF020403A
:1041D00041490860414848600420886000213E4809
:1041E000C160082101611021416100218161C1612B
:1041F000016241624FF4805181620021C1624FF43B
:10420000804101630021416381634164042008907F
:104210000F20099004200A9000200B9010200C9091
:1042200011200D9000070E900F2001900290FF20AA
:1042300003900F2004901020059011200690000795
:10424000079001AA08A92448FEF728FA08B1FCF74C
:10425000E7FB4FF0204022490860204848600620D4
:10426000886000211E48C160016110214161002168
:104270008161C161016241624FF48051816200211C
:10428000C1624FF480410163002141638163416455
:104290000F2008900990FF200A900F200B9010200B
:1042A0000C9011200D9000200E900F200190029094
:1042B000FF2003900F2004901020059011200690FD
:1042C0000020079001AA08A90548FEF739FE08B1A9
:1042D000FCF7A6FB0FB000BDAC050020040100A058
:1042E000F805002000B587B0142102A8FCF797F963
:1042F00000BF002001906748006840F02000654939
:1043000008600846006800F02000019000BF00BF70
:1043100000BF002001900846006840F0800008605F
:104320000846006800F08000019000BF00BF00BF99
:10433000002001900846006840F00100086008462F
:10434000006800F00100019000BF00BF00BF002026
:1043500001900846006840F0400008600846006888
:1043600000F04000019000BF00BF00BF002001909E
:104370000846006840F0100008600846006800F039
:104380001000019000BF00BF00BF00200190084650
:10439000006840F0080008600846006800F0080067
:1043A000019000BF00BF00BF0020019008460068D8
:1043B00040F0020008600846006800F0020001902A
:1043C00000BF00BF00224FF424613348FDF74EFCCC
:1043D000012280213048FDF749FC0022C8212F48E6
:1043E000FDF744FCC02002900120039000200490BF
:1043F000059002A92848FDF72FFB4FF4206002909A
:104400000120039004900220059002A92248FDF7A4
:1044100023FB4FF4806002904FF48810039000203B
:10442000049002A91C48FDF717FB4FF4807002901E
:104430004FF4881003900020049002A91848FDF75B
:104440000BFB882002901120039000200490022092
:10445000059002A91148FDF7FFFA402002900120C3
:10446000039000200490059002A90C48FDF7F4FA8F
:1044700000220A211720FEF760F91720FEF74DF9F8
:1044800000220A212820FEF758F92820FEF745F9D6
:1044900007B000BD3038024000140240000C02405A
:1044A0000018024010B50B480B4908600B484860E3
:1044B000002109488160C1604FF480410161002101
:1044C00041618161C1610162FDF7FEFB08B1FCF74A
:1044D000A7FA10BD0054004048060020A086010045
:1044E00010B50B480B4908604FF416404860002196
:1044F00008488160C16001610C2141610021816136
:10450000C161FFF727F808B1FCF78AFA10BD000077
:10451000001001409C06002000BFFEE700BFFEE740
:1045200010B504462CB1012251020548FDF79EFB4F
:1045300005E000224FF400710148FDF797FB10BD24
:10454000001402402DE9F0410746884614461D46F6
:104550002B4622464146384600F004F904FB05F29A
:104560000848038800264FF4305001F03BFC00BFA0
:1045700003E0184601F03AFC761C9642F9D300BFDE
:10458000BDE8F081E600002001B502E00098401E81
:10459000009000980028F9D108BD000008B54FF040
:1045A0002040204908602048486000BF002000905B
:1045B0001E48006840F001001C4908600846006879
:1045C00000F00100009000BF00BF042018490860FF
:1045D00000204860042088600020C86008614861AD
:1045E0004FF08050886104200E49886000210D48FA
:1045F000C160082101611021416100218161C16117
:1046000041624FF4805181620021C16201634163C4
:1046100081634FF48011C163054A1146FEF73EF8ED
:1046200008BD0000FC4F0020040100A03838024003
:104630004850002000B50246072A00DD00BD37487B
:104640000270104602EBD0714910A2EB410141B952
:104650004FF4F070324908804FF4487031490880B7
:1046600007E04FF448702E4908804FF4F0702D4950
:1046700008804FF4585001F0B5FB002141EA421088
:1046800001F0B4FB4FF4285001F0ACFB002001F026
:10469000ADFB42F6012001F0A5FB002001F0A6FBD6
:1046A00042F6022001F09EFB1D490988491EC1F314
:1046B000072001F09BFB42F6032001F093FB184911
:1046C0000978491EC8B201F091FB4FF42C5001F05B
:1046D00089FB002001F08AFB42F6013001F082FBE9
:1046E000002001F083FB42F6023001F07BFB0D4914
:1046F0000988491EC1F3072001F078FB42F6033018
:1047000001F070FB07490978491EC8B201F06EFB41
:104710004FF4305001F066FB00BF8FE7E40000204B
:10472000E0000020E200002010B5FFF737FF01F0A5
:1047300041FB00F05DF808480078FFF77BFF074871
:1047400003880748028800210846FFF7FBFE012086
:10475000FFF7E6FE10BD0000E4000020E2000020AC
:10476000E000002030B504460D464FF4285001F01B
:1047700039FB201201F03AFB42F6012001F032FB36
:10478000E0B201F033FB42F6022001F02BFBA1184E
:10479000491EC1F30F2001F029FB42F6032001F06E
:1047A00021FBA118491EC8B201F020FB4FF42C5088
:1047B00001F018FB281201F019FB42F6013001F05C
:1047C00011FBE8B201F012FB42F6023001F00AFBE5
:1047D000E918491EC1F30F2001F008FB42F603302F
:1047E00001F000FBE918491EC8B201F0FFFA30BD24
:1047F00010B54FF4704001F0F5FA552001F0F6FACB
:104800004FF2010001F0EEFAAA2001F0EFFA4FF2A8
:10481000020001F0E7FA522001F0E8FA4FF203003B
:1048200001F0E0FA082001F0E1FA4FF2040001F093
:10483000D9FA012001F0DAFA4FF4304001F0D2FA4F
:104840000D2001F0D3FA4BF2010001F0CBFA0D205C
:1048500001F0CCFA4BF2020001F0C4FA0D2001F095
:10486000C5FA4FF4314001F0BDFA0D2001F0BEFA57
:104870004BF2011001F0B6FA0D2001F0B7FA4BF23D
:10488000021001F0AFFA0D2001F0B0FA4FF43240FF
:1048900001F0A8FA002001F0A9FA4BF2012001F082
:1048A000A1FA002001F0A2FA4BF2022001F09AFADC
:1048B000002001F09BFA4FF4364001F093FA4420B7
:1048C00001F094FA4BF2016001F08CFA442001F0FF
:1048D0008DFA4BF2026001F085FA442001F086FA6D
:1048E0004FF4374001F07EFA342001F07FFA4BF2AA
:1048F000017001F077FA342001F078FA4BF202707F
:1049000001F070FA342001F071FA4FF4384001F0F0
:1049100069FA342001F06AFA4BF6010001F062FAFC
:10492000342001F063FA4BF6020001F05BFA342008
:1049300001F05CFA4FF43F4001F054FA012001F01D
:1049400055FA4FF4334001F04DFA0F2001F04EFAC2
:104950004BF2013001F046FA0F2001F047FA4BF21A
:10496000023001F03FFA0F2001F040FA4FF43940D5
:1049700001F038FA342001F039FA4BF6011001F059
:1049800031FA342001F032FA4BF6021001F02AFA23
:10499000342001F02BFA4FF4354001F023FA0820BF
:1049A00001F024FA4BF2015001F01CFA082001F04A
:1049B0001DFA4BF2025001F015FA082001F016FA28
:1049C0004FF4424001F00EFA032001F00FFA4FF4C9
:1049D0003A4001F007FA342001F008FA4BF60120C2
:1049E00001F000FA342001F001FA4BF6022001F048
:1049F000F9F9342001F0FAF94FF43C4001F0F2F9F2
:104A0000002001F0F3F94BF6014001F0EBF97820BA
:104A100001F0ECF94BF6024001F0E4F9002001F05E
:104A2000E5F94FF43D4001F0DDF9002001F0DEF939
:104A30004BF6015001F0D6F9782001F0D7F94BF68A
:104A4000025001F0CFF9002001F0D0F94FF43E40C0
:104A500001F0C8F9002001F0C9F94BF6016001F03E
:104A6000C1F9642001F0C2F94FF4514001F0BAF9E4
:104A7000002001F0BBF94DF2011001F0B3F9332031
:104A800001F0B4F94DF2021001F0ACF9002001F090
:104A9000ADF94DF2031001F0A5F9342001F0A6F9AB
:104AA0004DF2041001F09EF9002001F09FF94DF243
:104AB000051001F097F93A2001F098F94DF206102F
:104AC00001F090F9002001F091F94DF2071001F08A
:104AD00089F94A2001F08AF94DF2081001F082F9B3
:104AE000002001F083F94DF2091001F07BF95C2000
:104AF00001F07CF94DF20A1001F074F9002001F088
:104B000075F94DF20B1001F06DF9812001F06EF98D
:104B10004DF20C1001F066F9002001F067F94DF23A
:104B20000D1001F05FF9A62001F060F94DF20E10B2
:104B300001F058F9002001F059F94DF20F1001F081
:104B400051F9E52001F052F94DF2101001F04AF947
:104B5000012001F04BF94DF2111001F043F913203F
:104B600001F044F94DF2121001F03CF9012001F07E
:104B70003DF94DF2131001F035F9542001F036F9EA
:104B80004DF2141001F02EF9012001F02FF94DF231
:104B9000151001F027F9822001F028F94DF21610C6
:104BA00001F020F9012001F021F94DF2171001F078
:104BB00019F9CA2001F01AF94DF2181001F012F992
:104BC000022001F013F94DF2191001F00BF9002049
:104BD00001F00CF94DF21A1001F004F9022001F075
:104BE00005F94DF21B1001F0FDF8012001F0FEF86F
:104BF0004DF21C1001F0F6F8022001F0F7F84DF22A
:104C00001D1001F0EFF8342001F0F0F84DF21E1005
:104C100001F0E8F8022001F0E9F84DF21F1001F070
:104C2000E1F8672001F0E2F84DF2201001F0DAF827
:104C3000022001F0DBF84DF2211001F0D3F88420BE
:104C400001F0D4F84DF2221001F0CCF8022001F06E
:104C5000CDF84DF2231001F0C5F8A42001F0C6F8FC
:104C60004DF2241001F0BEF8022001F0BFF84DF221
:104C7000251001F0B7F8B72001F0B8F84DF2261072
:104C800001F0B0F8022001F0B1F84DF2271001F068
:104C9000A9F8CF2001F0AAF84DF2281001F0A2F8EF
:104CA000022001F0A3F84DF2291001F09BF8DE205C
:104CB00001F09CF84DF22A1001F094F8022001F066
:104CC00095F84DF22B1001F08DF8F22001F08EF8DE
:104CD0004DF22C1001F086F8022001F087F84DF219
:104CE0002D1001F07FF8FE2001F080F84DF22E101B
:104CF00001F078F8032001F079F84DF22F1001F05F
:104D000071F8102001F072F84DF2301001F06AF8DD
:104D1000032001F06BF84DF2311001F063F83320FD
:104D200001F064F84DF2321001F05CF8032001F05C
:104D30005DF84DF2331001F055F86D2001F056F892
:104D40004FF4524001F04EF8002001F04FF84DF2C0
:104D5000012001F047F8332001F048F84DF202201D
:104D600001F040F8002001F041F84DF2032001F07D
:104D700039F8342001F03AF84DF2042001F032F80D
:104D8000002001F033F84DF2052001F02BF83A2015
:104D900001F02CF84DF2062001F024F8002001F07B
:104DA00025F84DF2072001F01DF84A2001F01EF809
:104DB0004DF2082001F016F8002001F017F84DF22E
:104DC000092001F00FF85C2001F010F84DF20A20E4
:104DD00001F008F8002001F009F84DF20B2001F075
:104DE00001F8812001F002F84DF20C2000F0FAFFEA
:104DF000002000F0FBFF4DF20D2000F0F3FFA62095
:104E000000F0F4FF4DF20E2000F0ECFF002000F067
:104E1000EDFF4DF20F2000F0E5FFE52000F0E6FF8A
:104E20004DF2102000F0DEFF012000F0DFFF4DF218
:104E3000112000F0D7FF132000F0D8FF4DF2122010
:104E400000F0D0FF012000F0D1FF4DF2132000F060
:104E5000C9FF542000F0CAFF4DF2142000F0C2FF39
:104E6000012000F0C3FF4DF2152000F0BBFF8220AF
:104E700000F0BCFF4DF2162000F0B4FF012000F05E
:104E8000B5FF4DF2172000F0ADFFCA2000F0AEFFD5
:104E90004DF2182000F0A6FF022000F0A7FF4DF20F
:104EA000192000F09FFF002000F0A0FF4DF21A2013
:104EB00000F098FF022000F099FF4DF21B2000F057
:104EC00091FF012000F092FF4DF21C2000F08AFFBC
:104ED000022000F08BFF4DF21D2000F083FF3420F4
:104EE00000F084FF4DF21E2000F07CFF022000F055
:104EF0007DFF4DF21F2000F075FF672000F076FF68
:104F00004DF2202000F06EFF022000F06FFF4DF206
:104F1000212000F067FF842000F068FF4DF222207E
:104F200000F060FF022000F061FF4DF2232000F04E
:104F300059FFA42000F05AFF4DF2242000F052FF48
:104F4000022000F053FF4DF2252000F04BFFB72068
:104F500000F04CFF4DF2262000F044FF022000F04C
:104F600045FF4DF2272000F03DFFCF2000F03EFF2F
:104F70004DF2282000F036FF022000F037FF4DF2FE
:104F8000292000F02FFFDE2000F030FF4DF22A2014
:104F900000F028FF022000F029FF4DF22B2000F046
:104FA00021FFF22000F022FF4DF22C2000F01AFF2A
:104FB000022000F01BFF4DF22D2000F013FFFE2019
:104FC00000F014FF4DF22E2000F00CFF032000F043
:104FD0000DFF4DF22F2000F005FF102000F006FF1E
:104FE0004DF2302000F0FEFE032000F0FFFE4DF2F7
:104FF000312000F0F7FE332000F0F8FE4DF23220B1
:1050000000F0F0FE032000F0F1FE4DF2332000F03E
:10501000E9FE6D2000F0EAFE4FF4534000F0E2FE9E
:10502000002000F0E3FE4DF2013000F0DBFE332003
:1050300000F0DCFE4DF2023000F0D4FE002000F063
:10504000D5FE4DF2033000F0CDFE342000F0CEFE50
:105050004DF2043000F0C6FE002000F0C7FE4DF215
:10506000053000F0BFFE3A2000F0C0FE4DF20630E1
:1050700000F0B8FE002000F0B9FE4DF2073000F05D
:10508000B1FE4A2000F0B2FE4DF2083000F0AAFE58
:10509000002000F0ABFE4DF2093000F0A3FE5C20D2
:1050A00000F0A4FE4DF20A3000F09CFE002000F05B
:1050B0009DFE4DF20B3000F095FE812000F096FE33
:1050C0004DF20C3000F08EFE002000F08FFE4DF20D
:1050D0000D3000F087FEA62000F088FE4DF20E3065
:1050E00000F080FE002000F081FE4DF20F3000F055
:1050F00079FEE52000F07AFE4DF2103000F072FEED
:10510000012000F073FE4DF2113000F06BFE132011
:1051100000F06CFE4DF2123000F064FE012000F051
:1051200065FE4DF2133000F05DFE542000F05EFE8F
:105130004DF2143000F056FE012000F057FE4DF203
:10514000153000F04FFE822000F050FE4DF2163078
:1051500000F048FE012000F049FE4DF2173000F04B
:1051600041FECA2000F042FE4DF2183000F03AFE37
:10517000022000F03BFE4DF2193000F033FE00201B
:1051800000F034FE4DF21A3000F02CFE022000F048
:105190002DFE4DF21B3000F025FE012000F026FE12
:1051A0004DF21C3000F01EFE022000F01FFE4DF2FA
:1051B0001D3000F017FE342000F018FE4DF21E30B6
:1051C00000F010FE022000F011FE4DF21F3000F042
:1051D00009FE672000F00AFE4DF2203000F002FECA
:1051E000022000F003FE4DF2213000F0FBFD842090
:1051F00000F0FCFD4DF2223000F0F4FD022000F042
:10520000F5FD4DF2233000F0EDFDA42000F0EEFDA1
:105210004DF2243000F0E6FD022000F0E7FD4DF2F3
:10522000253000F0DFFDB72000F0E0FD4DF2263024
:1052300000F0D8FD022000F0D9FD4DF2273000F03B
:10524000D1FDCF2000F0D2FD4DF2283000F0CAFD94
:10525000022000F0CBFD4DF2293000F0C3FDDE202E
:1052600000F0C4FD4DF22A3000F0BCFD022000F039
:10527000BDFD4DF22B3000F0B5FDF22000F0B6FD83
:105280004DF22C3000F0AEFD022000F0AFFD4DF2EB
:105290002D3000F0A7FDFE2000F0A8FD4DF22E30CD
:1052A00000F0A0FD032000F0A1FD4DF22F3000F032
:1052B00099FD102000F09AFD4DF2303000F092FD83
:1052C000032000F093FD4DF2313000F08BFD3320D0
:1052D00000F08CFD4DF2323000F084FD032000F030
:1052E00085FD4DF2333000F07DFD6D2000F07EFD38
:1052F0004FF4544000F076FD002000F077FD4DF2B1
:10530000014000F06FFD332000F070FD4DF20240CF
:1053100000F068FD002000F069FD4DF2034000F050
:1053200061FD342000F062FD4DF2044000F05AFDB2
:10533000002000F05BFD4DF2054000F053FD3A20E7
:1053400000F054FD4DF2064000F04CFD002000F04E
:105350004DFD4DF2074000F045FD4A2000F046FDAE
:105360004DF2084000F03EFD002000F03FFD4DF200
:10537000094000F037FD5C2000F038FD4DF20A4096
:1053800000F030FD002000F031FD4DF20B4000F048
:1053900029FD812000F02AFD4DF20C4000F022FD95
:1053A000002000F023FD4DF20D4000F01BFDA62073
:1053B00000F01CFD4DF20E4000F014FD002000F046
:1053C00015FD4DF20F4000F00DFDE52000F00EFD43
:1053D0004DF2104000F006FD012000F007FD4DF2F7
:1053E000114000F0FFFC132000F000FD4DF21240D0
:1053F00000F0F8FC012000F0F9FC4DF2134000F041
:10540000F1FC542000F0F2FC4DF2144000F0EAFCF4
:10541000012000F0EBFC4DF2154000F0E3FC82208F
:1054200000F0E4FC4DF2164000F0DCFC012000F03E
:10543000DDFC4DF2174000F0D5FCCA2000F0D6FC90
:105440004DF2184000F0CEFC022000F0CFFC4DF2EF
:10545000194000F0C7FC002000F0C8FC4DF21A40D3
:1054600000F0C0FC022000F0C1FC4DF21B4000F037
:10547000B9FC012000F0BAFC4DF21C4000F0B2FC77
:10548000022000F0B3FC4DF21D4000F0ABFC3420D4
:1054900000F0ACFC4DF21E4000F0A4FC022000F035
:1054A000A5FC4DF21F4000F09DFC672000F09EFC23
:1054B0004DF2204000F096FC022000F097FC4DF2E7
:1054C000214000F08FFC842000F090FC4DF222403F
:1054D00000F088FC022000F089FC4DF2234000F02F
:1054E00081FCA42000F082FC4DF2244000F07AFC04
:1054F000022000F07BFC4DF2254000F073FCB72049
:1055000000F074FC4DF2264000F06CFC022000F02C
:105510006DFC4DF2274000F065FCCF2000F066FCEA
:105520004DF2284000F05EFC022000F05FFC4DF2DE
:10553000294000F057FCDE2000F058FC4DF22A40D4
:1055400000F050FC022000F051FC4DF22B4000F026
:1055500049FCF22000F04AFC4DF22C4000F042FCE5
:10556000022000F043FC4DF22D4000F03BFCFE20F9
:1055700000F03CFC4DF22E4000F034FC032000F023
:1055800035FC4DF22F4000F02DFC102000F02EFCD9
:105590004DF2304000F026FC032000F027FC4DF2D5
:1055A000314000F01FFC332000F020FC4DF232406F
:1055B00000F018FC032000F019FC4DF2334000F01D
:1055C00011FC6D2000F012FC4FF4554000F00AFC75
:1055D000002000F00BFC4DF2015000F003FC3320E2
:1055E00000F004FC4DF2025000F0FCFB002000F043
:1055F000FDFB4DF2035000F0F5FB342000F0F6FB0C
:105600004DF2045000F0EEFB002000F0EFFB4DF2F5
:10561000055000F0E7FB3A2000F0E8FB4DF20650A1
:1056200000F0E0FB002000F0E1FB4DF2075000F03D
:10563000D9FB4A2000F0DAFB4DF2085000F0D2FB13
:10564000002000F0D3FB4DF2095000F0CBFB5C20B2
:1056500000F0CCFB4DF20A5000F0C4FB002000F03B
:10566000C5FB4DF20B5000F0BDFB812000F0BEFBEE
:105670004DF20C5000F0B6FB002000F0B7FB4DF2ED
:105680000D5000F0AFFBA62000F0B0FB4DF20E5025
:1056900000F0A8FB002000F0A9FB4DF20F5000F035
:1056A000A1FBE52000F0A2FB4DF2105000F09AFBA8
:1056B000012000F09BFB4DF2115000F093FB1320F2
:1056C00000F094FB4DF2125000F08CFB012000F032
:1056D0008DFB4DF2135000F085FB542000F086FB4B
:1056E0004DF2145000F07EFB012000F07FFB4DF2E4
:1056F000155000F077FB822000F078FB4DF2165039
:1057000000F070FB012000F071FB4DF2175000F02B
:1057100069FBCA2000F06AFB4DF2185000F062FBF2
:10572000022000F063FB4DF2195000F05BFB0020FB
:1057300000F05CFB4DF21A5000F054FB022000F028
:1057400055FB4DF21B5000F04DFB012000F04EFBCD
:105750004DF21C5000F046FB022000F047FB4DF2DA
:105760001D5000F03FFB342000F040FB4DF21E5076
:1057700000F038FB022000F039FB4DF21F5000F022
:1057800031FB672000F032FB4DF2205000F02AFB85
:10579000022000F02BFB4DF2215000F023FB84206F
:1057A00000F024FB4DF2225000F01CFB022000F020
:1057B0001DFB4DF2235000F015FBA42000F016FB5A
:1057C0004DF2245000F00EFB022000F00FFB4DF2D2
:1057D000255000F007FBB72000F008FB4DF22650E3
:1057E00000F000FB022000F001FB4DF2275000F01A
:1057F000F9FACF2000F0FAFA4DF2285000F0F2FA50
:10580000022000F0F3FA4DF2295000F0EBFADE200E
:1058100000F0ECFA4DF22A5000F0E4FA022000F019
:10582000E5FA4DF22B5000F0DDFAF22000F0DEFA3E
:105830004DF22C5000F0D6FA022000F0D7FA4DF2CB
:105840002D5000F0CFFAFE2000F0D0FA4DF22E508D
:1058500000F0C8FA032000F0C9FA4DF22F5000F012
:10586000C1FA102000F0C2FA4DF2305000F0BAFA3E
:10587000032000F0BBFA4DF2315000F0B3FA3320B0
:1058800000F0B4FA4DF2325000F0ACFA032000F010
:10589000ADFA4DF2335000F0A5FA6D2000F0A6FAF3
:1058A0004FF4564000F09EFA002000F09FFA4DF2AF
:1058B000016000F097FA332000F098FA4DF2026090
:1058C00000F090FA002000F091FA4DF2036000F031
:1058D00089FA342000F08AFA4DF2046000F082FA6E
:1058E000002000F083FA4DF2056000F07BFA3A20C8
:1058F00000F07CFA4DF2066000F074FA002000F02F
:1059000075FA4DF2076000F06DFA4A2000F06EFA69
:105910004DF2086000F066FA002000F067FA4DF2E0
:10592000096000F05FFA5C2000F060FA4DF20A6056
:1059300000F058FA002000F059FA4DF20B6000F028
:1059400051FA812000F052FA4DF20C6000F04AFA50
:10595000002000F04BFA4DF20D6000F043FAA62053
:1059600000F044FA4DF20E6000F03CFA002000F026
:105970003DFA4DF20F6000F035FAE52000F036FAFE
:105980004DF2106000F02EFA012000F02FFA4DF2D7
:10599000116000F027FA132000F028FA4DF212608F
:1059A00000F020FA012000F021FA4DF2136000F01F
:1059B00019FA542000F01AFA4DF2146000F012FAAD
:1059C000012000F013FA4DF2156000F00BFA82206E
:1059D00000F00CFA4DF2166000F004FA012000F01D
:1059E00005FA4DF2176000F0FDF9CA2000F0FEF94B
:1059F0004DF2186000F0F6F9022000F0F7F94DF2D0
:105A0000196000F0EFF9002000F0F0F94DF21A6093
:105A100000F0E8F9022000F0E9F94DF21B6000F017
:105A2000E1F9012000F0E2F94DF21C6000F0DAF932
:105A3000022000F0DBF94DF21D6000F0D3F93420B4
:105A400000F0D4F94DF21E6000F0CCF9022000F015
:105A5000CDF94DF21F6000F0C5F9672000F0C6F9DE
:105A60004DF2206000F0BEF9022000F0BFF94DF2C7
:105A7000216000F0B7F9842000F0B8F94DF22260FF
:105A800000F0B0F9022000F0B1F94DF2236000F00F
:105A9000A9F9A42000F0AAF94DF2246000F0A2F9BF
:105AA000022000F0A3F94DF2256000F09BF9B72029
:105AB00000F09CF94DF2266000F094F9022000F00D
:105AC00095F94DF2276000F08DF9CF2000F08EF9A6
:105AD0004DF2286000F086F9022000F087F94DF2BF
